:100000000C9488000C9438010C9439010C94220053
:100010000C9422000C9422000C9422000C942200D8
:100020000C9422000C9422000C9422000C94B30037
:100030000C9422000C94EA000C9422000C94B8005A
:100040000C942200189500000D0A5B535953544537
:100050004D5D200050726F6772616D207374617224
:100060007465642E00427574746F6E20636C6963EE
:100070006B65642E000D0A005F000D0A3E200068CB
:10008000656C700D0076657273696F6E0D00736537
:10009000742000417661696C61626C6520636F6DEC
:1000A0006D616E64733A2068656C702C20766572A1
:1000B00073696F6E0056657273696F6E20302E31F2
:1000C00020285F5F54494D455F5F2900496E766186
:1000D0006C696420636F6D6D616E642E205573656D
:1000E000202268656C702220746F2067657420611F
:1000F00076616C6961626C6520636F6D6D616E64C1
:10010000732E0073657474696E67207800000000B8
:1001100001EB0DBF02E00EBF60E064BB0E94730103
:100120000E94A501C0E6D0E0E8E4F0E00E94A00152
:10013000E0E6F0E00E94FF01C0E6D0E0E4E5F0E098
:100140000E94A001E0E6F0E00E94FF01C0E6D0E0DE
:10015000EAE7F0E00E94A001E0E6F0E00E94FF0183
:1001600088950C94B0000E9484010E94E9011895C2
:100170000E94E9011895C0E6D0E0E3E9F0E00E94B2
:10018000A001E0E6F0E00E94FF010895C0E6D0E0A3
:10019000E5EBF0E00E94A001E0E6F0E00E94FF0144
:1001A00008952881822E213399F0C0E6D0E0E3E063
:1001B000F1E00E94A001E0E6F0E008E010E0E00FCE
:1001C000F10F222F2083E0E6F0E00E94FF01089566
:1001D00062E064BB0E94BB010D3009F01895C0E6D7
:1001E000D0E0E5E7F0E00E94A001E0E6F0E00E9448
:1001F000FF01E0E6F0E00E94D30100E00083C0E6EA
:10020000D0E0EFE7F0E00E945A01013021F40E94B3
:10021000BB000C942D01C0E6D0E0E5E8F0E00E94C0
:100220005A01013021F40E94C6000C942D01C0E651
:10023000D0E0EEE8F0E00E946901013021F40E9474
:10024000D1000C942D01C0E6D0E0ECECF0E00E946F
:10025000A001E0E6F0E00E94FF01C0E6D0E0EAE79E
:10026000F0E00E94A001E0E6F0E00E94FF01189596
:1002700018950E949801C0E6D0E0E8E4F0E00E9402
:10028000A001E0E6F0E00E94FF01C0E6D0E0E5E674
:10029000F0E00E94A001E0E6F0E00E94FF01C0E66D
:1002A000D0E0EAE7F0E00E94A001E0E6F0E00E9482
:1002B000FF01189519912591121721F41030D1F7EB
:1002C00001E0089500E00895099101930030E1F7FD
:1002D000089519912591121721F41032D1F701E0F8
:1002E000089500E0089503E003BF00E002BF01E0CD
:1002F00009BF929A939A00EC0BBF0AE005BF00E099
:100300000093A000789408950091A000003079F047
:10031000829B0AC0839B08C00A950093A00000300E
:1003200031F400EC0BBF03C00FEF0093A000089561
:1003300000E00BBF00EC0ABF0FEF0093A000089590
:10034000159119931030E1F7089500E00BB908ED0D
:100350000AB906E800BD05E009B900E00093A20073
:100360000093A1000093250100932601009323012F
:100370000093240108950CB11091250120E0C7E2FB
:10038000D1E0C10FD21F08831395103809F410E093
:100390001093250100932301E3E2F1E00E94FF01A5
:1003A000009123010895009126011091250120E07C
:1003B000C7E2D1E0C00FD21F3991319303950038C5
:1003C00019F400E0C7E2D1E00117B1F7009326016C
:1003D00008955D9B13C00091A1001091A200011728
:1003E00069F0E3EAF0E000E0E10FF01F00810CB9F2
:1003F0001395103809F410E01093A2000895F894B2
:100400000091A10010E0C3EAD0E0C00FD11F11910C
:1004100019930395003819F400E0C3EAD0E01030D6
:10042000B1F70093A1007894089506E10093A70125
:100430000BE20093A80100E00093A901A3EAB2E057
:10044000A093AA01B093AB010895B13029F4A3356C
:1004500019F402E00E94BC02089510E013950A50BE
:10046000EAF71A95065F0895A091AA01B091AB0131
:100470000E9425021197BF3FA9F5AF3F99F5009162
:10048000A9011091A8012091A70103950C3349F40B
:1004900000E013951C3329F410E02395283109F46A
:1004A00020E00093A9011093A8012093A701422FF7
:1004B000012F0E942D02312F102F00E00E94B30265
:1004C00001E0132F0E94B302042F0E942D02312F4E
:1004D000102F02E00E94B30203E0132F0E94B30228
:1004E000A3EAB2E0A093AA01B093AB0108950091F2
:1004F000A8010E942D02202F312F0091A7010E94F8
:100500002D020895C0F9A4B0999282F88090FF005E
:10051000070B0D0E00E00093AC010093AD010093BA
:10052000AE010093AF010093B0010FEF0ABB04B31B
:100530001FE0012B04BB08950091AC01CDEAD1E08E
:10054000C00F1881E0E1F5E0E00F249140EF35B3F2
:100550003423232B1BBB25BB0395043009F400E097
:100560000093AC010895CDEAD1E0C00FE4E0F5E0DE
:10057000E10F249128830895CDEAD1E0C00F1881BE
:080580002FE7122318830895F0
:100588000000000000000000000000000000000063
:100598000000000000000000000000000000000053
:1005A8000000000000000000000000000000000043
:1005B8000000000000000000000000000000000033
:0107D8000020
:00000001FF
